:100000000C9458000C9480000C9480000C94800098
:100010000C9480000C9480000C9480000C94800060
:100020000C9480000C9480000C9480000C94800050
:100030000C9480000C9480000C9480000C94800040
:100040000C941D040C9480000C9480000C9480008F
:100050000C9480000C9480000C9480000C94800020
:100060000C9467040C948000000000002500280018
:100070002B00040404040404040402020202020229
:10008000030303030303010204081020408001025C
:1000900004081020010204081020000000080002DB
:1000A00001000003040700000000000000008605B6
:1000B00011241FBECFEFD8E0DEBFCDBF11E0A0E01E
:1000C000B1E0E4E9F2E102C005900D92AA34B10773
:1000D000D9F722E0AAE4B1E001C01D92A532B2072F
:1000E000E1F710E0C8E5D0E004C02197FE010E94CE
:1000F0004209C735D107C9F70E94A6050C944809E3
:100100000C94000008950895AF92BF92CF92DF92B1
:10011000EF92FF920F931F93CF93DF936C017B01BC
:100120008B01040F151FEB015E01AE18BF08C0174D
:10013000D10759F06991D601ED91FC910190F081C0
:10014000E02DC6010995892B79F7C501DF91CF9183
:100150001F910F91FF90EF90DF90CF90BF90AF90E5
:10016000089590E0FC01E656FF4F2491FC01EA5708
:10017000FF4F3491FC01EE58FF4FE491EE23C9F09C
:10018000222339F0233001F1A8F4213019F1223073
:1001900029F1F0E0EE0FFF1FE859FF4FA591B49150
:1001A0008FB7F894EC91611126C030953E233C93B3
:1001B0008FBF08952730A9F02830C9F0243049F7BF
:1001C000809180008F7D03C0809180008F77809325
:1001D0008000DFCF84B58F7784BDDBCF84B58F7D82
:1001E000FBCF8091B0008F778093B000D2CF809109
:1001F000B0008F7DF9CF3E2BDACF3FB7F8948091D6
:10020000010290910202A0910302B091040226B56E
:10021000A89B05C02F3F19F00196A11DB11D3FBF3E
:10022000BA2FA92F982F8827BC01CD01620F711D0D
:10023000811D911D42E0660F771F881F991F4A9507
:10024000D1F708958F929F92AF92BF92CF92DF9293
:10025000EF92FF924B015C010E94FD006B017C015B
:100260000E94FD006C197D098E099F09683E73404C
:1002700081059105A8F321E0821A9108A108B1082F
:1002800088EEC80E83E0D81EE11CF11C8114910495
:10029000A104B10429F7FF90EF90DF90CF90BF90B9
:1002A000AF909F908F900895089520918B01260F15
:1002B0003327331F21323105ECF42091D401FC01A6
:1002C00090E080E0243069F082E00895A0918B01F5
:1002D0002191AC0145595E4FA40FB52FB11D2C9350
:1002E0000196861798F380918B01680F60938B01BC
:1002F00080E0089581E008951092D40181E0809318
:10030000D3011092AE0161E082E10E94B10061E090
:1003100083E10E94B100E9EBF0E080818E7F808371
:1003200080818D7F808388E48093B80085E480930A
:10033000BC000895CF93DF9391E090936A018823E6
:10034000B9F0C091B800D091BA008091BC008A7B0E
:100350008093BC0060E082E10E94B10060E083E134
:100360000E94B1000E947C01D093BA00C093B800F3
:10037000DF91CF9108950895E0910C0280910B02D6
:10038000E81730F4F0E0E65BFE4F808190E00895DE
:100390008FEF9FEF089590910C0280910B022FEF49
:1003A0003FEF981748F4E92FF0E0E65BFE4F20811D
:1003B00030E09F5F90930C02C901089580910B0279
:1003C00090910C02891B990B0895CF92DF92EF92C6
:1003D000FF920F931F93CF93DF937C01CB018A0190
:1003E0002091DA01222389F0EB016B01C40ED51EA6
:1003F000CC15DD0569F06991D701ED91FC91019073
:10040000F081E02DC7010995F3CF642F0E945501BB
:10041000C801DF91CF911F910F91FF90EF90DF9076
:10042000CF900895CF93DF931F92CDB7DEB7698346
:100430002091DA012223F9F020910902203258F0AC
:1004400021E030E0FC013383228390E080E00F90D4
:10045000DF91CF91089580910A02E82FF0E0E552F4
:10046000FE4F998190838F5F80930A0280930902E7
:1004700081E090E0ECCF61E0CE0101960E94550151
:10048000F7CFCF92DF92EF92FF920F931F93CF930C
:10049000DF93FC01C48121E02093DA01C093FB01CA
:1004A00010920A02109209028385682B8DE092E077
:1004B0000E941202D0910902D13208F092C00E942B
:1004C000FD006B017C018091D401811165C082E047
:1004D0008093D40181E08093D3018FEF8093D20188
:1004E0001092D101D093D001ABEDB1E0E0EBF1E09F
:1004F00080E0D81385C01092AF018091AF01CC0F7E
:10050000C82BC093AF018091AE01813009F07CC04F
:100510001092AE010E94FD006B017C018091AF0141
:100520008093BB008091D6019091D701A091D80112
:10053000B091D901892B8A2B8B2B99F00E94FD0059
:100540000091D6011091D7012091D8013091D901A5
:100550006C197D098E099F090617170728073907A7
:10056000E0F18091BC0083FDD9CF85EC8093BC0085
:100570000E94FD006B017C018091D401823009F45E
:1005800045C08091D2018F3F61F18091D2018032CC
:1005900041F18091D20125C08091D6019091D7017F
:1005A000A091D801B091D901892B8A2B8B2B09F40A
:1005B0008ACF0E94FD000091D6011091D7012091B1
:1005C000D8013091D9016C197D098E099F09061750
:1005D00017072807390708F076CF8091D5010E94C8
:1005E0009A0110920A02109209021092DA01DF9128
:1005F000CF911F910F91FF90EF90DF90CF900895D2
:100600009D9191938F5F75CF85EEB0CF8091D6018C
:100610009091D701A091D801B091D901892B8A2B53
:100620008B2B09F4A9CF0E94FD000091D6011091F7
:10063000D7012091D8013091D9016C197D098E091B
:100640009F09061717072807390708F095CFC5CF68
:1006500090E080E00895FC0101900020E9F73197D7
:10066000AF01481B590BBC0189E192E00C94840056
:100670008F929F92AF92BF920F931F93CF93DF936E
:10068000CDB7DEB7A1970FB6F894DEBF0FBECDBFD2
:1006900019A2423008F44AE08E010F5D1F4F842EEC
:1006A000912CB12CA12CA50194010E942009E62FC8
:1006B000B901CA01EA30F4F4E05DD801EE938D018E
:1006C000232B242B252B79F790E080E0109719F04D
:1006D000CD010E942B03A1960FB6F894DEBF0FBE8A
:1006E000CDBFDF91CF911F910F91BF90AF909F90A1
:1006F0008F900895E95CE1CF0F931F93CF938C0106
:10070000C62F0E9441026C2F6460C8010E94410202
:100710006C2F6B7FC8010E94410283EC90E001972F
:10072000F1F7CF911F910F9108950F931F93CF93DE
:10073000DF938C01D62FC42F607F642B0E947C0333
:1007400080E1D89FB00111246C2BC801DF91CF91BB
:100750001F910F910C947C03CF93DF93CDB7DEB73D
:1007600028970FB6F894DEBF0FBECDBF98E0E0E04B
:10077000F1E0DE01119601900D929A95E1F79091CA
:100780002102961708F46FEF262F30E0220F331F57
:1007900041E050E04C0F5D1F240F351FF9016081CF
:1007A000680F606840E089E192E028960FB6F894FF
:1007B000DEBF0FBECDBFDF91CF910C94950341E01A
:1007C0000E94950381E090E0089585ED8093BC0040
:1007D0008091D6019091D701A091D801B091D90113
:1007E0000796A11DB11D23E0B695A795979587950E
:1007F0002A95D1F72091BC0024FD03C01092D401AA
:1008000008954091D6015091D7016091D80170911F
:10081000D901452B462B472B69F30097A105B1055C
:1008200041F025E32A95F1F700000197A109B109EC
:10083000E1CF8091D5010C949A011F920F920FB6CF
:100840000F9211242F933F938F939F93AF93BF9356
:100850008091FD019091FE01A091FF01B0910002F5
:100860003091FC0123E0230F2D3758F50196A11D8F
:10087000B11D2093FC018093FD019093FE01A09394
:10088000FF01B09300028091010290910202A091B9
:100890000302B09104020196A11DB11D80930102D3
:1008A00090930202A0930302B0930402BF91AF9110
:1008B0009F918F913F912F910F900FBE0F901F909E
:1008C000189526E8230F0296A11DB11DD2CF1F92C5
:1008D0000F920FB60F9211242F933F934F935F9374
:1008E0006F937F938F939F93AF93BF93EF93FF93F8
:1008F0008091B900887F803609F44AC0F0F58832CB
:1009000009F4A7C018F5803109F49BC0B8F4882316
:1009100009F4F9C0883009F494C0FF91EF91BF91B8
:10092000AF919F918F917F916F915F914F913F9187
:100930002F910F900FBE0F901F901895883109F4DA
:1009400088C0803251F78093D20114C0803409F4FA
:100950009DC040F48033B9F38833F9F68093D20117
:1009600085ECB0C0803509F485C0883509F496C09F
:10097000883499F60E94E503D0CF883909F48CC0F9
:1009800038F5883729F050F4883611F0803729F689
:1009900083E08093D4011092AD0157C0883809F4E8
:1009A0007BC0803919F0803809F0B7CF8091AD0154
:1009B000803208F071C0E091AD0181E08E0F80932C
:1009C000AD018091BB00F0E0E357FE4F80833DC056
:1009D000803B39F0E0F4803A09F479C0883A09F0B4
:1009E0009CCF84E08093D40110928C0110928B01F3
:1009F000E0910702F0910802099580918B01811125
:100A00000FC081E080938B0110926B0109C0803C84
:100A100009F4A6CF883C09F4A3CF883B09F07DCF29
:100A2000E0918C0181E08E0F80938C01F0E0E5591C
:100A3000FE4F80818093BB0090918C0180918B014F
:100A400029C08091AF018093BB0085EC8093BC00EE
:100A500064CF9091D1018091D001981758F5E09121
:100A6000D10181E08E0F8093D101F0E0E055FE4F7F
:100A70008081E9CFE091D10181E08E0F8093D10197
:100A80008091BB00F0E0E055FE4F80839091D10152
:100A90008091D0019817C8F285E8D8CFE091D101B4
:100AA00081E08E0F8093D1018091BB00F0E0E05592
:100AB000FE4F80838091D30181115CCF81E08093D0
:100AC000AE0184EA8093BC001092D40126CF85EC5D
:100AD0008093BC001092D4018091AD01803230F43B
:100AE000E091AD01F0E0E357FE4F10826091AD015F
:100AF00070E0E0910502F09106028DE891E0099521
:100B00001092AD010ACF1092D20134CFEDE0F2E0A5
:100B10001382128288EE93E0A0E0B0E08483958394
:100B2000A683B7838CE091E091838083E9E1F2E0D2
:100B3000138212828EE191E09183808387E2848325
:100B400080E1818782E0828713860895789484B556
:100B5000826084BD84B5816084BD85B5826085BDB9
:100B600085B5816085BD80916E00816080936E0047
:100B70001092810080918100826080938100809139
:100B800081008160809381008091800081608093EA
:100B900080008091B10084608093B1008091B000AA
:100BA00081608093B00080917A00846080937A00A5
:100BB00080917A00826080937A0080917A008160CF
:100BC00080937A0080917A00806880937A001092F6
:100BD000C10010920C0210920B0210920A021092A5
:100BE00009020E947C0182E890E0909308028093C1
:100BF000070283E890E0909306028093050210922A
:100C00001E0280912302823018F098E090931E0219
:100C10008093210262E370E080E090E00E94220174
:100C20006091240289E192E00E94410268EE73E043
:100C300080E090E00E94220160E389E192E00E945E
:100C40007C03CBE4D6E4CE010197F1F760E389E1C0
:100C500092E00E947C032197F1F760E389E192E042
:100C60000E947C0383E592E00197F1F760E289E15D
:100C700092E00E947C0360911E02606240E089E184
:100C800092E00E94950384E080931F0240E06CE0B4
:100C900089E192E00E94950340E061E089E192E001
:100CA0000E949503CBE3DFE1CE010197F1F782E0EB
:100CB0008093200240E066E089E192E00E94950383
:100CC00040E062E089E192E00E9495032197F1F70C
:100CD00010E408E0C0E0D0E010937C0080917A003E
:100CE000806480937A0080917A0086FDFCCF8091A9
:100CF000780060917900762F682F072E000C880B02
:100D0000990B0E94F90720E93EE34AEF5EE30E9457
:100D1000AE086B017C014B015C010093240260E092
:100D200089E192E00E94410260E080E00E94AC0311
:100D300086E291E00E942B0361E081E00E94AC0317
:100D4000A7019601C701B6010E941B098823C1F0C3
:100D500085E391E00E942B0361E086E00E94AC03F2
:100D600081E491E00E942B0368EE73E080E090E064
:100D70000E942201209709F4AFCF0E940000ACCF5F
:100D800026013701E89477F82FEF3FEF4FE75FE751
:100D9000C301B2010E941B0981110DC02FEF3FEF6B
:100DA0004FE75FE7C301B2010E94C30718161CF4A6
:100DB00089E391E0CFCF2FEF3FEF4FE75FE4C7012B
:100DC000B6010E94A90818161CF48DE391E0C2CF69
:100DD0002FEF3FEF4FE75FECC701B6010E94C3075B
:100DE00087FDF3CF20E030E0A901C701B6010E94E2
:100DF000C30787FF0CC041E06DE289E192E00E94E9
:100E0000950346015701B7FAB094B7F8B0942AE0B9
:100E100037ED43EA5BE3C501B4010E9457074B017C
:100E20005C010E94C8076B017C010E94F7079B01CF
:100E3000AC01C501B4010E9456074B015C014AE0B8
:100E4000C701B6010E94380341E06EE289E192E0F9
:100E50000E94950320E030E040E251E4C501B40176
:100E60000E94AE084B015C010E94C8076B01F12C87
:100E7000E12C4AE0C701B6010E943803C701B60160
:100E80000E94F7079B01AC01C501B4010E945607FF
:100E900020E030E040E251E40E94AE080E94C80722
:100EA00090E080E04AE00E94380356CF5058BB27BC
:100EB000AA270E946E070C946F080E94610838F000
:100EC0000E94680820F039F49F3F19F426F40C942E
:100ED0005E080EF4E095E7FB0C945808E92F0E9499
:100EE000800858F3BA17620773078407950720F044
:100EF00079F4A6F50C94A2080EF4E0950B2EBA2F07
:100F0000A02D0B01B90190010C01CA01A00111240F
:100F1000FF27591B99F0593F50F4503E68F11A16BB
:100F2000F040A22F232F342F4427585FF3CF46954C
:100F300037952795A795F0405395C9F77EF41F166E
:100F4000BA0B620B730B840BBAF09150A1F0FF0F38
:100F5000BB1F661F771F881FC2F70EC0BA0F621F24
:100F6000731F841F48F4879577956795B795F79514
:100F70009E3F08F0B0CF9395880F08F09927EE0FA9
:100F80009795879508950E94340808F481E00895A4
:100F90000E94880888F09F5798F0B92F9927B75179
:100FA000B0F0E1F0660F771F881F991F1AF0BA950D
:100FB000C9F714C0B13091F00E94A208B1E00895C1
:100FC0000C94A208672F782F8827B85F39F0B93FB3
:100FD000CCF3869577956795B395D9F73EF49095C0
:100FE0008095709561957F4F8F4F9F4F0895E8943E
:100FF00009C097FB3EF490958095709561957F4F61
:101000008F4F9F4F9923A9F0F92F96E9BB2793950E
:10101000F695879577956795B795F111F8CFFAF41E
:10102000BB0F11F460FF1BC06F5F7F4F8F4F9F4F4F
:1010300016C0882311F096E911C0772321F09EE8AD
:10104000872F762F05C0662371F096E8862F70E013
:1010500060E02AF09A95660F771F881FDAF7880FED
:101060009695879597F90895990F0008550FAA0B43
:10107000E0E8FEEF16161706E807F907C0F01216AB
:101080001306E407F50798F0621B730B840B950BAE
:1010900039F40A2661F0232B242B252B21F4089503
:1010A0000A2609F4A140A6958FEF811D811D0895A0
:1010B00097F99F6780E870E060E008959FEF80EC0B
:1010C000089500240A9416161706180609060895AE
:1010D00000240A9412161306140605060895092E14
:1010E0000394000C11F4882352F0BB0F40F4BF2B83
:1010F00011F460FF04C06F5F7F4F8F4F9F4F0895C3
:1011000057FD9058440F551F59F05F3F71F04795B8
:10111000880F97FB991F61F09F3F79F0879508959D
:10112000121613061406551FF2CF4695F1DF08C0BC
:10113000161617061806991FF1CF869571056105D9
:1011400008940895E894BB2766277727CB0197F981
:1011500008950E94340808F48FEF08950E94C10892
:101160000C946F080E94610838F00E94680820F013
:10117000952311F00C9458080C945E0811240C94DB
:10118000A3080E94800870F3959FC1F3950F50E06B
:10119000551F629FF001729FBB27F00DB11D639F29
:1011A000AA27F00DB11DAA1F649F6627B00DA11DCF
:1011B000661F829F2227B00DA11D621F739FB00D75
:1011C000A11D621F839FA00D611D221F749F3327E5
:1011D000A00D611D231F849F600D211D822F762F7E
:1011E0006A2F11249F5750409AF0F1F088234AF05B
:1011F000EE0FFF1FBB1F661F771F881F91505040C7
:10120000A9F79E3F510580F00C9458080C94A30850
:101210005F3FE4F3983ED4F3869577956795B7954D
:10122000F795E7959F5FC1F7FE2B880F911D969567
:10123000879597F908950E943408880B990B0895B3
:10124000A1E21A2EAA1BBB1BFD010DC0AA1FBB1FCA
:10125000EE1FFF1FA217B307E407F50720F0A21B3C
:10126000B30BE40BF50B661F771F881F991F1A94A9
:1012700069F760957095809590959B01AC01BD01D3
:10128000CF010895EE0FFF1F0590F491E02D099412
:04129000F894FFCF00
:101294000000400014005400000000001202E501A8
:1012A4002803BB01DE01CB01BC0100000000DF0309
:1012B40084002803540154656D70657261747572FD
:1012C40065203A20006E616E00696E66006F766676
:0A12D400002043656C636975730028
:00000001FF
